{
  "_format": "hh-sol-artifact-1",
  "contractName": "TokenFactory",
  "sourceName": "contracts/TokenFactory.sol",
  "abi": [
    {
      "anonymous": false,
      "inputs": [
        {
          "indexed": false,
          "internalType": "address",
          "name": "tokenAddress",
          "type": "address"
        },
        {
          "indexed": false,
          "internalType": "string",
          "name": "name",
          "type": "string"
        },
        {
          "indexed": false,
          "internalType": "string",
          "name": "symbol",
          "type": "string"
        },
        {
          "indexed": false,
          "internalType": "string",
          "name": "tokenURI",
          "type": "string"
        }
      ],
      "name": "TokenCreated",
      "type": "event"
    },
    {
      "inputs": [
        {
          "internalType": "string",
          "name": "name",
          "type": "string"
        },
        {
          "internalType": "string",
          "name": "symbol",
          "type": "string"
        },
        {
          "internalType": "string",
          "name": "tokenURI",
          "type": "string"
        }
      ],
      "name": "createToken",
      "outputs": [
        {
          "internalType": "address",
          "name": "",
          "type": "address"
        }
      ],
      "stateMutability": "nonpayable",
      "type": "function"
    },
    {
      "inputs": [
        {
          "internalType": "address",
          "name": "",
          "type": "address"
        },
        {
          "internalType": "uint256",
          "name": "",
          "type": "uint256"
        }
      ],
      "name": "creatorTokens",
      "outputs": [
        {
          "internalType": "address",
          "name": "",
          "type": "address"
        }
      ],
      "stateMutability": "view",
      "type": "function"
    },
    {
      "inputs": [
        {
          "internalType": "address",
          "name": "creator",
          "type": "address"
        }
      ],
      "name": "getCreatorTokens",
      "outputs": [
        {
          "internalType": "address[]",
          "name": "",
          "type": "address[]"
        }
      ],
      "stateMutability": "view",
      "type": "function"
    }
  ],
  "bytecode": "0x6080604052348015600f57600080fd5b5061271a8061001f6000396000f3fe608060405234801561001057600080fd5b50600436106100415760003560e01c806374abfa541461004657806394aed7d014610076578063db3fa4cc146100a6575b600080fd5b610060600480360381019061005b9190610395565b6100d6565b60405161006d9190610480565b60405180910390f35b610090600480360381019061008b91906105e8565b6101a2565b60405161009d919061069e565b60405180910390f35b6100c060048036038101906100bb91906106ef565b6102c8565b6040516100cd919061069e565b60405180910390f35b60606000808373ffffffffffffffffffffffffffffffffffffffff1673ffffffffffffffffffffffffffffffffffffffff16815260200190815260200160002080548060200260200160405190810160405280929190818152602001828054801561019657602002820191906000526020600020905b8160009054906101000a900473ffffffffffffffffffffffffffffffffffffffff1673ffffffffffffffffffffffffffffffffffffffff168152602001906001019080831161014c575b50505050509050919050565b600080848484336040516101b590610316565b6101c294939291906107ae565b604051809103906000f0801580156101de573d6000803e3d6000fd5b5090506000803373ffffffffffffffffffffffffffffffffffffffff1673ffffffffffffffffffffffffffffffffffffffff168152602001908152602001600020819080600181540180825580915050600190039060005260206000200160009091909190916101000a81548173ffffffffffffffffffffffffffffffffffffffff021916908373ffffffffffffffffffffffffffffffffffffffff1602179055507f10d72033834a2a8a099dfa90492346be3414c081b6e5155dbbc2093cfb0dbf09818686866040516102b59493929190610808565b60405180910390a1809150509392505050565b600060205281600052604060002081815481106102e457600080fd5b906000526020600020016000915091509054906101000a900473ffffffffffffffffffffffffffffffffffffffff1681565b611e828061086383390190565b6000604051905090565b600080fd5b600080fd5b600073ffffffffffffffffffffffffffffffffffffffff82169050919050565b600061036282610337565b9050919050565b61037281610357565b811461037d57600080fd5b50565b60008135905061038f81610369565b92915050565b6000602082840312156103ab576103aa61032d565b5b60006103b984828501610380565b91505092915050565b600081519050919050565b600082825260208201905092915050565b6000819050602082019050919050565b6103f781610357565b82525050565b600061040983836103ee565b60208301905092915050565b6000602082019050919050565b600061042d826103c2565b61043781856103cd565b9350610442836103de565b8060005b8381101561047357815161045a88826103fd565b975061046583610415565b925050600181019050610446565b5085935050505092915050565b6000602082019050818103600083015261049a8184610422565b905092915050565b600080fd5b600080fd5b6000601f19601f8301169050919050565b7f4e487b7100000000000000000000000000000000000000000000000000000000600052604160045260246000fd5b6104f5826104ac565b810181811067ffffffffffffffff82111715610514576105136104bd565b5b80604052505050565b6000610527610323565b905061053382826104ec565b919050565b600067ffffffffffffffff821115610553576105526104bd565b5b61055c826104ac565b9050602081019050919050565b82818337600083830152505050565b600061058b61058684610538565b61051d565b9050828152602081018484840111156105a7576105a66104a7565b5b6105b2848285610569565b509392505050565b600082601f8301126105cf576105ce6104a2565b5b81356105df848260208601610578565b91505092915050565b6000806000606084860312156106015761060061032d565b5b600084013567ffffffffffffffff81111561061f5761061e610332565b5b61062b868287016105ba565b935050602084013567ffffffffffffffff81111561064c5761064b610332565b5b610658868287016105ba565b925050604084013567ffffffffffffffff81111561067957610678610332565b5b610685868287016105ba565b9150509250925092565b61069881610357565b82525050565b60006020820190506106b3600083018461068f565b92915050565b6000819050919050565b6106cc816106b9565b81146106d757600080fd5b50565b6000813590506106e9816106c3565b92915050565b600080604083850312156107065761070561032d565b5b600061071485828601610380565b9250506020610725858286016106da565b9150509250929050565b600081519050919050565b600082825260208201905092915050565b60005b8381101561076957808201518184015260208101905061074e565b60008484015250505050565b60006107808261072f565b61078a818561073a565b935061079a81856020860161074b565b6107a3816104ac565b840191505092915050565b600060808201905081810360008301526107c88187610775565b905081810360208301526107dc8186610775565b905081810360408301526107f08185610775565b90506107ff606083018461068f565b95945050505050565b600060808201905061081d600083018761068f565b818103602083015261082f8186610775565b905081810360408301526108438185610775565b905081810360608301526108578184610775565b90509594505050505056fe608060405234801561001057600080fd5b50604051611e82380380611e8283398181016040528101906100329190610678565b80848481600390816100449190610954565b5080600490816100549190610954565b505050600073ffffffffffffffffffffffffffffffffffffffff168173ffffffffffffffffffffffffffffffffffffffff16036100c95760006040517f1e4fbdf70000000000000000000000000000000000000000000000000000000081526004016100c09190610a35565b60405180910390fd5b6100d88161012960201b60201c565b5081600690816100e89190610954565b50610120816100fb6101ef60201b60201c565b600a6101079190610bbf565b620f42406101159190610c0a565b6101f860201b60201c565b50505050610ce1565b6000600560009054906101000a900473ffffffffffffffffffffffffffffffffffffffff16905081600560006101000a81548173ffffffffffffffffffffffffffffffffffffffff021916908373ffffffffffffffffffffffffffffffffffffffff1602179055508173ffffffffffffffffffffffffffffffffffffffff168173ffffffffffffffffffffffffffffffffffffffff167f8be0079c531659141344cd1fd0a4f28419497f9722a3daafe3b4186f6b6457e060405160405180910390a35050565b60006012905090565b600073ffffffffffffffffffffffffffffffffffffffff168273ffffffffffffffffffffffffffffffffffffffff160361026a5760006040517fec442f050000000000000000000000000000000000000000000000000000000081526004016102619190610a35565b60405180910390fd5b61027c6000838361028060201b60201c565b5050565b600073ffffffffffffffffffffffffffffffffffffffff168373ffffffffffffffffffffffffffffffffffffffff16036102d25780600260008282546102c69190610c4c565b925050819055506103a5565b60008060008573ffffffffffffffffffffffffffffffffffffffff1673ffffffffffffffffffffffffffffffffffffffff1681526020019081526020016000205490508181101561035e578381836040517fe450d38c00000000000000000000000000000000000000000000000000000000815260040161035593929190610c8f565b60405180910390fd5b8181036000808673ffffffffffffffffffffffffffffffffffffffff1673ffffffffffffffffffffffffffffffffffffffff16815260200190815260200160002081905550505b600073ffffffffffffffffffffffffffffffffffffffff168273ffffffffffffffffffffffffffffffffffffffff16036103ee578060026000828254039250508190555061043b565b806000808473ffffffffffffffffffffffffffffffffffffffff1673ffffffffffffffffffffffffffffffffffffffff168152602001908152602001600020600082825401925050819055505b8173ffffffffffffffffffffffffffffffffffffffff168373ffffffffffffffffffffffffffffffffffffffff167fddf252ad1be2c89b69c2b068fc378daa952ba7f163c4a11628f55a4df523b3ef836040516104989190610cc6565b60405180910390a3505050565b6000604051905090565b600080fd5b600080fd5b600080fd5b600080fd5b6000601f19601f8301169050919050565b7f4e487b7100000000000000000000000000000000000000000000000000000000600052604160045260246000fd5b61050c826104c3565b810181811067ffffffffffffffff8211171561052b5761052a6104d4565b5b80604052505050565b600061053e6104a5565b905061054a8282610503565b919050565b600067ffffffffffffffff82111561056a576105696104d4565b5b610573826104c3565b9050602081019050919050565b60005b8381101561059e578082015181840152602081019050610583565b60008484015250505050565b60006105bd6105b88461054f565b610534565b9050828152602081018484840111156105d9576105d86104be565b5b6105e4848285610580565b509392505050565b600082601f830112610601576106006104b9565b5b81516106118482602086016105aa565b91505092915050565b600073ffffffffffffffffffffffffffffffffffffffff82169050919050565b60006106458261061a565b9050919050565b6106558161063a565b811461066057600080fd5b50565b6000815190506106728161064c565b92915050565b60008060008060808587031215610692576106916104af565b5b600085015167ffffffffffffffff8111156106b0576106af6104b4565b5b6106bc878288016105ec565b945050602085015167ffffffffffffffff8111156106dd576106dc6104b4565b5b6106e9878288016105ec565b935050604085015167ffffffffffffffff81111561070a576107096104b4565b5b610716878288016105ec565b925050606061072787828801610663565b91505092959194509250565b600081519050919050565b7f4e487b7100000000000000000000000000000000000000000000000000000000600052602260045260246000fd5b6000600282049050600182168061078557607f821691505b6020821081036107985761079761073e565b5b50919050565b60008190508160005260206000209050919050565b60006020601f8301049050919050565b600082821b905092915050565b6000600883026108007fffffffffffffffffffffffffffffffffffffffffffffffffffffffffffffffff826107c3565b61080a86836107c3565b95508019841693508086168417925050509392505050565b6000819050919050565b6000819050919050565b600061085161084c61084784610822565b61082c565b610822565b9050919050565b6000819050919050565b61086b83610836565b61087f61087782610858565b8484546107d0565b825550505050565b600090565b610894610887565b61089f818484610862565b505050565b5b818110156108c3576108b860008261088c565b6001810190506108a5565b5050565b601f821115610908576108d98161079e565b6108e2846107b3565b810160208510156108f1578190505b6109056108fd856107b3565b8301826108a4565b50505b505050565b600082821c905092915050565b600061092b6000198460080261090d565b1980831691505092915050565b6000610944838361091a565b9150826002028217905092915050565b61095d82610733565b67ffffffffffffffff811115610976576109756104d4565b5b610980825461076d565b61098b8282856108c7565b600060209050601f8311600181146109be57600084156109ac578287015190505b6109b68582610938565b865550610a1e565b601f1984166109cc8661079e565b60005b828110156109f4578489015182556001820191506020850194506020810190506109cf565b86831015610a115784890151610a0d601f89168261091a565b8355505b6001600288020188555050505b505050505050565b610a2f8161063a565b82525050565b6000602082019050610a4a6000830184610a26565b92915050565b7f4e487b7100000000000000000000000000000000000000000000000000000000600052601160045260246000fd5b60008160011c9050919050565b6000808291508390505b6001851115610ad657808604811115610ab257610ab1610a50565b5b6001851615610ac15780820291505b8081029050610acf85610a7f565b9450610a96565b94509492505050565b600082610aef5760019050610bab565b81610afd5760009050610bab565b8160018114610b135760028114610b1d57610b4c565b6001915050610bab565b60ff841115610b2f57610b2e610a50565b5b8360020a915084821115610b4657610b45610a50565b5b50610bab565b5060208310610133831016604e8410600b8410161715610b815782820a905083811115610b7c57610b7b610a50565b5b610bab565b610b8e8484846001610a8c565b92509050818404811115610ba557610ba4610a50565b5b81810290505b9392505050565b600060ff82169050919050565b6000610bca82610822565b9150610bd583610bb2565b9250610c027fffffffffffffffffffffffffffffffffffffffffffffffffffffffffffffffff8484610adf565b905092915050565b6000610c1582610822565b9150610c2083610822565b9250828202610c2e81610822565b91508282048414831517610c4557610c44610a50565b5b5092915050565b6000610c5782610822565b9150610c6283610822565b9250828201905080821115610c7a57610c79610a50565b5b92915050565b610c8981610822565b82525050565b6000606082019050610ca46000830186610a26565b610cb16020830185610c80565b610cbe6040830184610c80565b949350505050565b6000602082019050610cdb6000830184610c80565b92915050565b61119280610cf06000396000f3fe608060405234801561001057600080fd5b50600436106100cf5760003560e01c806370a082311161008c57806395d89b411161006657806395d89b4114610204578063a9059cbb14610222578063dd62ed3e14610252578063f2fde38b14610282576100cf565b806370a08231146101ac578063715018a6146101dc5780638da5cb5b146101e6576100cf565b806306fdde03146100d4578063095ea7b3146100f257806318160ddd1461012257806323b872dd14610140578063313ce567146101705780633c130d901461018e575b600080fd5b6100dc61029e565b6040516100e99190610de6565b60405180910390f35b61010c60048036038101906101079190610ea1565b610330565b6040516101199190610efc565b60405180910390f35b61012a610353565b6040516101379190610f26565b60405180910390f35b61015a60048036038101906101559190610f41565b61035d565b6040516101679190610efc565b60405180910390f35b61017861038c565b6040516101859190610fb0565b60405180910390f35b610196610395565b6040516101a39190610de6565b60405180910390f35b6101c660048036038101906101c19190610fcb565b610423565b6040516101d39190610f26565b60405180910390f35b6101e461046b565b005b6101ee61047f565b6040516101fb9190611007565b60405180910390f35b61020c6104a9565b6040516102199190610de6565b60405180910390f35b61023c60048036038101906102379190610ea1565b61053b565b6040516102499190610efc565b60405180910390f35b61026c60048036038101906102679190611022565b61055e565b6040516102799190610f26565b60405180910390f35b61029c60048036038101906102979190610fcb565b6105e5565b005b6060600380546102ad90611091565b80601f01602080910402602001604051908101604052809291908181526020018280546102d990611091565b80156103265780601f106102fb57610100808354040283529160200191610326565b820191906000526020600020905b81548152906001019060200180831161030957829003601f168201915b5050505050905090565b60008061033b61066b565b9050610348818585610673565b600191505092915050565b6000600254905090565b60008061036861066b565b9050610375858285610685565b610380858585610719565b60019150509392505050565b60006012905090565b600680546103a290611091565b80601f01602080910402602001604051908101604052809291908181526020018280546103ce90611091565b801561041b5780601f106103f05761010080835404028352916020019161041b565b820191906000526020600020905b8154815290600101906020018083116103fe57829003601f168201915b505050505081565b60008060008373ffffffffffffffffffffffffffffffffffffffff1673ffffffffffffffffffffffffffffffffffffffff168152602001908152602001600020549050919050565b61047361080d565b61047d6000610894565b565b6000600560009054906101000a900473ffffffffffffffffffffffffffffffffffffffff16905090565b6060600480546104b890611091565b80601f01602080910402602001604051908101604052809291908181526020018280546104e490611091565b80156105315780601f1061050657610100808354040283529160200191610531565b820191906000526020600020905b81548152906001019060200180831161051457829003601f168201915b5050505050905090565b60008061054661066b565b9050610553818585610719565b600191505092915050565b6000600160008473ffffffffffffffffffffffffffffffffffffffff1673ffffffffffffffffffffffffffffffffffffffff16815260200190815260200160002060008373ffffffffffffffffffffffffffffffffffffffff1673ffffffffffffffffffffffffffffffffffffffff16815260200190815260200160002054905092915050565b6105ed61080d565b600073ffffffffffffffffffffffffffffffffffffffff168173ffffffffffffffffffffffffffffffffffffffff160361065f5760006040517f1e4fbdf70000000000000000000000000000000000000000000000000000000081526004016106569190611007565b60405180910390fd5b61066881610894565b50565b600033905090565b610680838383600161095a565b505050565b6000610691848461055e565b90507fffffffffffffffffffffffffffffffffffffffffffffffffffffffffffffffff81146107135781811015610703578281836040517ffb8f41b20000000000000000000000000000000000000000000000000000000081526004016106fa939291906110c2565b60405180910390fd5b6107128484848403600061095a565b5b50505050565b600073ffffffffffffffffffffffffffffffffffffffff168373ffffffffffffffffffffffffffffffffffffffff160361078b5760006040517f96c6fd1e0000000000000000000000000000000000000000000000000000000081526004016107829190611007565b60405180910390fd5b600073ffffffffffffffffffffffffffffffffffffffff168273ffffffffffffffffffffffffffffffffffffffff16036107fd5760006040517fec442f050000000000000000000000000000000000000000000000000000000081526004016107f49190611007565b60405180910390fd5b610808838383610b31565b505050565b61081561066b565b73ffffffffffffffffffffffffffffffffffffffff1661083361047f565b73ffffffffffffffffffffffffffffffffffffffff16146108925761085661066b565b6040517f118cdaa70000000000000000000000000000000000000000000000000000000081526004016108899190611007565b60405180910390fd5b565b6000600560009054906101000a900473ffffffffffffffffffffffffffffffffffffffff16905081600560006101000a81548173ffffffffffffffffffffffffffffffffffffffff021916908373ffffffffffffffffffffffffffffffffffffffff1602179055508173ffffffffffffffffffffffffffffffffffffffff168173ffffffffffffffffffffffffffffffffffffffff167f8be0079c531659141344cd1fd0a4f28419497f9722a3daafe3b4186f6b6457e060405160405180910390a35050565b600073ffffffffffffffffffffffffffffffffffffffff168473ffffffffffffffffffffffffffffffffffffffff16036109cc5760006040517fe602df050000000000000000000000000000000000000000000000000000000081526004016109c39190611007565b60405180910390fd5b600073ffffffffffffffffffffffffffffffffffffffff168373ffffffffffffffffffffffffffffffffffffffff1603610a3e5760006040517f94280d62000000000000000000000000000000000000000000000000000000008152600401610a359190611007565b60405180910390fd5b81600160008673ffffffffffffffffffffffffffffffffffffffff1673ffffffffffffffffffffffffffffffffffffffff16815260200190815260200160002060008573ffffffffffffffffffffffffffffffffffffffff1673ffffffffffffffffffffffffffffffffffffffff168152602001908152602001600020819055508015610b2b578273ffffffffffffffffffffffffffffffffffffffff168473ffffffffffffffffffffffffffffffffffffffff167f8c5be1e5ebec7d5bd14f71427d1e84f3dd0314c0f7b2291e5b200ac8c7c3b92584604051610b229190610f26565b60405180910390a35b50505050565b600073ffffffffffffffffffffffffffffffffffffffff168373ffffffffffffffffffffffffffffffffffffffff1603610b83578060026000828254610b779190611128565b92505081905550610c56565b60008060008573ffffffffffffffffffffffffffffffffffffffff1673ffffffffffffffffffffffffffffffffffffffff16815260200190815260200160002054905081811015610c0f578381836040517fe450d38c000000000000000000000000000000000000000000000000000000008152600401610c06939291906110c2565b60405180910390fd5b8181036000808673ffffffffffffffffffffffffffffffffffffffff1673ffffffffffffffffffffffffffffffffffffffff16815260200190815260200160002081905550505b600073ffffffffffffffffffffffffffffffffffffffff168273ffffffffffffffffffffffffffffffffffffffff1603610c9f5780600260008282540392505081905550610cec565b806000808473ffffffffffffffffffffffffffffffffffffffff1673ffffffffffffffffffffffffffffffffffffffff168152602001908152602001600020600082825401925050819055505b8173ffffffffffffffffffffffffffffffffffffffff168373ffffffffffffffffffffffffffffffffffffffff167fddf252ad1be2c89b69c2b068fc378daa952ba7f163c4a11628f55a4df523b3ef83604051610d499190610f26565b60405180910390a3505050565b600081519050919050565b600082825260208201905092915050565b60005b83811015610d90578082015181840152602081019050610d75565b60008484015250505050565b6000601f19601f8301169050919050565b6000610db882610d56565b610dc28185610d61565b9350610dd2818560208601610d72565b610ddb81610d9c565b840191505092915050565b60006020820190508181036000830152610e008184610dad565b905092915050565b600080fd5b600073ffffffffffffffffffffffffffffffffffffffff82169050919050565b6000610e3882610e0d565b9050919050565b610e4881610e2d565b8114610e5357600080fd5b50565b600081359050610e6581610e3f565b92915050565b6000819050919050565b610e7e81610e6b565b8114610e8957600080fd5b50565b600081359050610e9b81610e75565b92915050565b60008060408385031215610eb857610eb7610e08565b5b6000610ec685828601610e56565b9250506020610ed785828601610e8c565b9150509250929050565b60008115159050919050565b610ef681610ee1565b82525050565b6000602082019050610f116000830184610eed565b92915050565b610f2081610e6b565b82525050565b6000602082019050610f3b6000830184610f17565b92915050565b600080600060608486031215610f5a57610f59610e08565b5b6000610f6886828701610e56565b9350506020610f7986828701610e56565b9250506040610f8a86828701610e8c565b9150509250925092565b600060ff82169050919050565b610faa81610f94565b82525050565b6000602082019050610fc56000830184610fa1565b92915050565b600060208284031215610fe157610fe0610e08565b5b6000610fef84828501610e56565b91505092915050565b61100181610e2d565b82525050565b600060208201905061101c6000830184610ff8565b92915050565b6000806040838503121561103957611038610e08565b5b600061104785828601610e56565b925050602061105885828601610e56565b9150509250929050565b7f4e487b7100000000000000000000000000000000000000000000000000000000600052602260045260246000fd5b600060028204905060018216806110a957607f821691505b6020821081036110bc576110bb611062565b5b50919050565b60006060820190506110d76000830186610ff8565b6110e46020830185610f17565b6110f16040830184610f17565b949350505050565b7f4e487b7100000000000000000000000000000000000000000000000000000000600052601160045260246000fd5b600061113382610e6b565b915061113e83610e6b565b9250828201905080821115611156576111556110f9565b5b9291505056fea2646970667358221220fa14b2ab3c05735e2ed4ce65d5c47d4d76b66e3b790505a1d9bef1e0a4f4345c64736f6c634300081b0033a26469706673582212208fe2d2f058a35917b39427d758f7e6d64fb12f0e7faa17b9d5f4b79330f6a62064736f6c634300081b0033",
  "linkReferences": {},
  "deployedLinkReferences": {}
}